:1000000001308A00FE290000FF00030E8301A100D9
:100010000A08A0008A010408A2007708A300780853
:10002000A4007908A5007A08A600831383128B1E0A
:100030001B280B1932288C308400801D21288C1934
:100040003528220884002308F7002408F800250832
:10005000F9002608FA0020088A00210E8300FF0E0E
:100060007F0E09008A110A12F5288A110A1238280F
:100070001308B2008C118A110A122128430807398B
:10008000F700430CF800F80CF80C1F30F80578085E
:1000900045078400831346188317F801F80AF70A06
:1000A0005228F80DF70B5128C40803195A2878086C
:1000B00080045D28F809780880050800C10141081E
:1000C000073C031C8F28401C7928283041078400F6
:1000D00083130008C200C3000130C400C601C5017B
:1000E0003E204208C300C401C6018030C5003E2046
:1000F0008B2828304107840083130008C200C30006
:10010000C401C601C5013E204208C300C401C601A6
:100110008030C5003E200310C00CC10A5F280800D3
:100120004008003A0319B328013A0319B728033AE3
:100130000319BB28013A0319BF28073A0319C3283A
:10014000013A0319C728033A0319CB28013A0319C6
:10015000CF280F3A0319D328013A0319D728583A60
:100160000319DB28DF28FC30F800DF28DF286030A7
:10017000F800DF28DF28DA30F800DF28DF28F23047
:10018000F800DF28DF286630F800DF28DF28B630E7
:10019000F800DF28DF283E30F800DF28DF28E030D5
:1001A000F800DF28DF28FE30F800DF28DF28E630FF
:1001B000F800DF28DF280230F800DF28DF280800F9
:1001C0004108F80140020318E8284008F700F42825
:1001D000F7010830C200C00DF70D4108770203187F
:1001E000F700F80DC20BEB280800311C5F2930081E
:1001F0000319FE28013A031931295E29C0015E2046
:10020000FC3083168700831207148316870083123D
:1002100087103208523C031D10298A0100282E291C
:100220003208513C031D1C293208C0009020780878
:10023000BF00C0005E202E293208C0000A30C10075
:10024000E0207808C0000A30C100E0207708BF0035
:10025000C00090207808BF00C0005E200130B000D0
:100260005E29C0015E20FC308316870083120710D0
:1002700083168700831287143208523C031D4329DA
:100280008A0100285C293208513C031D4F2932089D
:10029000C00090207808BF00C0005E205C293208B2
:1002A000C0000A30C100E0207708BF00C0009020E5
:1002B0007808BF00C0005E20B0015E296A29C00135
:1002C0005E20FC3083168700831207108316870098
:1002D00083128710EC3081000B118A110A12212839
:1002E0003730840083130008031983290630F8008F
:1002F000F701F70B7929F80B78297B30F700F70B1A
:100300007F29800B762908008030B300FC308316EB
:100310008700831207108316870083128714B401A5
:100320003408073C031CAC29A7018B1BA7178B13B0
:10033000C0015E20A71B8B17A7018B1BA7178B1370
:100340003308C0005E20A71B8B170310B30C64306A
:10035000B7007021B40A90290430B600C830B70045
:100360007021B60BAE298030B300FC3083168700B5
:10037000831207148316870083128710B50135088E
:10038000073C031CDB29A7018B1BA7178B13C0019C
:100390005E20A71B8B17A7018B1BA7178B13330896
:1003A000C0005E20A71B8B170310B30C6430B7008E
:1003B0007021B50ABF290430B600C830B7007021DB
:1003C000B60BDD29FC3083168700831207148316D1
:1003D000870083128714A7018B1BA7178B13FF308D
:1003E000C0005E20A71B8B170C30B600FA30B70098
:1003F0007021B60BF6298A110A12382A03081F3910
:100400008300831603170908C039890003131F12DC
:100410009F12003003178800831287018801890129
:10042000831334300313A8003330A9003230AA00FC
:100430003130AB002B30AC002A30AD002930AE009B
:100440002830AF00FC308316870083120710831614
:10045000870083128710A7018B1BA7178B13C0017E
:100460005E20A71B8B17B00193013114B2018429C0
:100470009412FC30831687008700F0308500FC3032
:100480008700243083129400403083169400831236
:100490008C1183168C150108C0390738810083122E
:0E04A0008B16C0308B04EC308100552A6300AF
:04400E00E22CFF3F62
:00000001FF
;PIC16F886
;CRC=F13B  CREATED="18-Aug-20 10:23"
