:0400000072EF00F0AB
:08000800046ED8CF05F0E0CF33
:1000100006F00001E9CF0CF0EACF07F0E1CF08F0DD
:10002000E2CF09F0D9CF0AF0DACF0BF0F3CF12F01C
:10003000F4CF13F0FACF14F000C00EF001C00FF0AF
:1000400002C010F003C011F09DAA2AEF00F09EBA82
:100050004BEF00F00EC000F00FC001F010C002F036
:1000600011C003F00CC0E9FF07C0EAFF078E08C00B
:10007000E1FF09C0E2FF0AC0D9FF0BC0DAFF12C0DE
:10008000F3FF13C0F4FF14C0FAFF045006C0E0FFF2
:1000900005C0D8FF10009EAAFED7AECF16F09E9ADC
:1000A0002AEF00F0EA6A180EE96EEF500DE0020E3A
:1000B000016E006A002EFED7012EFBD7970E006E50
:1000C000002EFED7EF2EF3D7120095928C92C950D6
:1000D00017C0C9FFC730FEE395928C820A0E186ED6
:1000E000E1DF1200F86AD09E078E700ED36ED350F7
:1000F000B8960C0EAF6EA20EAC6E900EAB6E0000FA
:100100000000C150C00B0F09C16E070EB46E166A15
:1001100095928C82C69A949A94889496200EC66E74
:10012000C00EC76E0A0E186EBDDF9D8AC00EF21299
:100130001650520A01E009D016C017F0C6DF0A0EA9
:10014000186EB0DF166AFF0003D016C017F0BDDFCF
:04015000EFD70300E2
:020000040030CA
:0E00000000C8181E008781000FC00FE00F40DF
:00000001FF
;PIC18F4520
;CRC=2E9E  CREATED="18-Aug-20 10:25"
